{
  "contractName": "Greeter",
  "abi": [
    {
      "inputs": [],
      "stateMutability": "nonpayable",
      "type": "constructor"
    },
    {
      "inputs": [
        {
          "internalType": "string",
          "name": "_greeting",
          "type": "string"
        }
      ],
      "name": "setGreeting",
      "outputs": [],
      "stateMutability": "nonpayable",
      "type": "function"
    },
    {
      "inputs": [],
      "name": "greet",
      "outputs": [
        {
          "internalType": "string",
          "name": "",
          "type": "string"
        }
      ],
      "stateMutability": "view",
      "type": "function",
      "constant": true
    },
    {
      "inputs": [],
      "name": "owner",
      "outputs": [
        {
          "internalType": "address",
          "name": "",
          "type": "address"
        }
      ],
      "stateMutability": "view",
      "type": "function",
      "constant": true
    }
  ],
  "bytecode": "0x6080604052604051806020016040528060008152506000908051906020019061002992919061007d565b5034801561003657600080fd5b5033600160006101000a81548173ffffffffffffffffffffffffffffffffffffffff021916908373ffffffffffffffffffffffffffffffffffffffff160217905550610180565b8280546100899061014f565b90600052602060002090601f0160209004810192826100ab57600085556100f2565b82601f106100c457805160ff19168380011785556100f2565b828001600101855582156100f2579182015b828111156100f15782518255916020019190600101906100d6565b5b5090506100ff9190610103565b5090565b5b8082111561011c576000816000905550600101610104565b5090565b7f4e487b7100000000000000000000000000000000000000000000000000000000600052602260045260246000fd5b6000600282049050600182168061016757607f821691505b60208210810361017a57610179610120565b5b50919050565b6105788061018f6000396000f3fe608060405234801561001057600080fd5b50600436106100415760003560e01c80638da5cb5b14610046578063a413686214610064578063cfae321714610080575b600080fd5b61004e61009e565b60405161005b91906102e4565b60405180910390f35b61007e6004803603810190610079919061036e565b6100c8565b005b61008861016e565b6040516100959190610454565b60405180910390f35b6000600160009054906101000a900473ffffffffffffffffffffffffffffffffffffffff16905090565b600160009054906101000a900473ffffffffffffffffffffffffffffffffffffffff1673ffffffffffffffffffffffffffffffffffffffff163373ffffffffffffffffffffffffffffffffffffffff1614610158576040517f08c379a000000000000000000000000000000000000000000000000000000000815260040161014f906104c2565b60405180910390fd5b818160009190610169929190610200565b505050565b60606000805461017d90610511565b80601f01602080910402602001604051908101604052809291908181526020018280546101a990610511565b80156101f65780601f106101cb576101008083540402835291602001916101f6565b820191906000526020600020905b8154815290600101906020018083116101d957829003601f168201915b5050505050905090565b82805461020c90610511565b90600052602060002090601f01602090048101928261022e5760008555610275565b82601f1061024757803560ff1916838001178555610275565b82800160010185558215610275579182015b82811115610274578235825591602001919060010190610259565b5b5090506102829190610286565b5090565b5b8082111561029f576000816000905550600101610287565b5090565b600073ffffffffffffffffffffffffffffffffffffffff82169050919050565b60006102ce826102a3565b9050919050565b6102de816102c3565b82525050565b60006020820190506102f960008301846102d5565b92915050565b600080fd5b600080fd5b600080fd5b600080fd5b600080fd5b60008083601f84011261032e5761032d610309565b5b8235905067ffffffffffffffff81111561034b5761034a61030e565b5b60208301915083600182028301111561036757610366610313565b5b9250929050565b60008060208385031215610385576103846102ff565b5b600083013567ffffffffffffffff8111156103a3576103a2610304565b5b6103af85828601610318565b92509250509250929050565b600081519050919050565b600082825260208201905092915050565b60005b838110156103f55780820151818401526020810190506103da565b83811115610404576000848401525b50505050565b6000601f19601f8301169050919050565b6000610426826103bb565b61043081856103c6565b93506104408185602086016103d7565b6104498161040a565b840191505092915050565b6000602082019050818103600083015261046e818461041b565b905092915050565b7f43616c6c6572206973206e6f74206f776e657200000000000000000000000000600082015250565b60006104ac6013836103c6565b91506104b782610476565b602082019050919050565b600060208201905081810360008301526104db8161049f565b9050919050565b7f4e487b7100000000000000000000000000000000000000000000000000000000600052602260045260246000fd5b6000600282049050600182168061052957607f821691505b60208210810361053c5761053b6104e2565b5b5091905056fea26469706673582212207250e885061c8f58eea2c0f1b4252ce36f4ef1bae7ee8718cc9cd451816ea79264736f6c634300080e0033",
  "immutableReferences": {},
  "source": "// SPDX-License-Identifier: MIT\npragma solidity >=0.8.14;\n\ncontract Greeter {\n    string private greeting = \"\";\n    address private _owner;\n\n    constructor() {\n        _owner = msg.sender;\n    }\n\n    function setGreeting(string calldata _greeting) external onlyOwner {\n        greeting = _greeting;\n    }\n\n    function greet() external view returns (string memory) {\n        return greeting;\n    }\n\n    function owner() external view returns (address) {\n        return _owner;\n    }\n\n    modifier onlyOwner() {\n        require(msg.sender == _owner, \"Caller is not owner\");\n        _;\n    }\n}\n",
  "sourcePath": "/Users/vikasbhandary/work/playground/eth-workspace/greater/contracts/Greeter.sol",
  "compiler": {
    "name": "solc",
    "version": "0.8.14+commit.80d49f37.Emscripten.clang"
  },
  "schemaVersion": "3.4.7",
  "updatedAt": "2022-07-12T07:27:10.428Z",
  "networkType": "ethereum",
  "devdoc": {
    "kind": "dev",
    "methods": {},
    "version": 1
  },
  "userdoc": {
    "kind": "user",
    "methods": {},
    "version": 1
  }
}